:10000000F02000202D01000029010000290100003E
:1000100000000000000000000000000000000000E0
:1000200000000000000000000000000029010000A6
:10003000000000000000000029010000290100006C
:100040002901000029010000290100002901000008
:1000500029010000290100002901000029010000F8
:1000600029010000290100002901000029010000E8
:1000700029010000290100002901000029010000D8
:1000800029010000050F00002901000029010000DE
:1000900029010000290100002901000029010000B8
:1000A00029010000290100002901000029010000A8
:1000B0000000000010B5064C2378002B07D1054B3B
:1000C000002B02D0044800E000BF0123237010BDC4
:1000D0006400002000000000001C0000084B10B568
:1000E000002B03D00749084800E000BF0748036819
:1000F000002B00D110BD064B002BFBD09847F9E731
:100100000000000068000020001C0000001C00002F
:100110000000000010B5024B9847024B984710BDF5
:100120002503000089100000FEE7000010B5124A08
:10013000124B9A4209D0114B0F4A03E01168196023
:10014000043304320E498B42F8D30E4B02E00022F6
:100150001A6004330C4A9342F9D30C4AFF210C4B2A
:100160008B4393600B4A516880230B4353600A4BC7
:1001700098470A4B9847FEE7001C0000000000204B
:100180006400002064000020EC00002000ED00E08E
:100190000000000000400041A9100000750F0000A1
:1001A00010B5094AD16980235B000B43D36141211B
:1001B000EC23064AD150064B9847020005490648F1
:1001C000064B984710BDC046000400400018004090
:1001D000C50E000000200042CC00002019050000E0
:1001E00030B50F4B5622995C0125A94301242143C8
:1001F000C9B299543B20195C473A914302221143FA
:10020000C9B2195457215A5CAA432243D2B25A5454
:100210001A5C48390A4020210A43D2B21A5430BD30
:1002200000280040064B4021D42299500331103A57
:100230009950044AD3693B390B43D3617047C04698
:10024000001800400004004010B5054B98470022FC
:1002500004490548054B9847054B984710BDC046D3
:1002600025020000000C0042AC000020290700001D
:10027000E1010000F0B5C025ED0504236B60144BCF
:10028000144A9A62C02212069A624226995D01249B
:10029000A14301200143C9B29955113E995D0F2731
:1002A000B9430143C9B29955202169600A4999624D
:1002B0009A6245215A5CA2430243D2B25A5413397E
:1002C0005A5C0F20024010200243D2B25A54F0BDB3
:1002D000002800400400004020000040054AD16989
:1002E00080235B010B43D361422180235B00024AE0
:1002F000D1507047000400400018004010B5044B76
:10030000984704490448054B9847054B984710BD4A
:10031000DD02000000300042B8000020650300004C
:100320007502000010B5044B9847044B9847044BE6
:100330009847044B984710BD5D0800004902000033
:10034000A1010000FD020000EFF31083036072B60C
:10035000BFF35F8F7047BFF35F8F036883F310882D
:100360007047000070B504000D00002810D000296F
:100370000CD0012032220C490C4B98472900200058
:100380000B4B984700280ED100230AE00020F1E72C
:100390000020EFE7DA00A2180021516091600133DC
:1003A000DBB2012BF6D970BDBC180000A10700001C
:1003B0001D09000070B504000D0000280CD00129B3
:1003C0000CD9002052220649064B984729002000EC
:1003D000054B9847002070BD0020F3E70120F1E7AE
:1003E000BC180000A10700004909000070B5040016
:1003F0000D00160000280ED000290AD0012034225A
:100400000649074B98472368320029002000984787
:1004100070BD0020F3E70020F1E7C046D8180000C7
:10042000A107000070B504000D00160000280ED0D2
:1004300000290AD001203D220649074B98476368EE
:10044000320029002000984770BD0020F3E700200B
:10045000F1E7C046D8180000A1070000F8B506680B
:10046000002E02D0330000250CE0104B984718E016
:100470009F68BC466444A41A01348F68BC420BD206
:100480001D001B68002B07D05C689442F0D8A41AAA
:100490009F68BC466444F0E7B34203D02800044B95
:1004A0009847F8BD014B9847FBE7C046C1070000DD
:1004B000ED070000F8B50500446903695E1C06619C
:1004C000037EDB0702D4037E9B070AD52B7E022224
:1004D0001343DBB22B76F8BD6F69E36820009847C1
:1004E0003C00002CF7D06368F31AA2689342F2D361
:1004F0002F0014373800064B9847237C012BEBD193
:100500006660320021003800024B9847E4E7C0469D
:10051000F50700005D04000070B504000D00002820
:1005200012D000290ED001203B220849084B9847E1
:1005300029002000074B984700232361064B2360C6
:10054000002070BD0020EFE70020EDE7EC18000070
:10055000A1070000050D0000B504000010B504005F
:10056000431E9841C0B253220749084B98472000C8
:10057000074B9847002804D12000064B98470020DD
:1005800010BD11204042FBE7EC180000A10700005D
:10059000B30E0000A10E000070B582B004000D0083
:1005A000002826D0002922D001207A221F49204B82
:1005B0009847237E01221343DBB2237626001436AC
:1005C000290030001B4B9847002814D123696B6029
:1005D000226929003000184B9847237E012293435B
:1005E0002376237E9B0712D4002002B070BD00202A
:1005F000DBE70020D9E7237E0122934323767E3276
:100600000A4900200A4B984712204042EDE701A812
:100610000A4B9847237E0222934323762000084BFF
:10062000984701A8074B98470020DEE7EC18000028
:10063000A1070000A90700005D04000049030000B5
:10064000C90E000057030000F8B505000E001700A2
:10065000002823D0002923D0002A23D10020F12212
:100660001149124B98472C0008342000104B984732
:100670000028F8D00025715D20000E4B984720001F
:100680000B4B98470028FAD00135BD42F3D3200028
:10069000094B98470028FAD02800F8BD0020DEE773
:1006A0000020DCE70120DAE704190000A1070000C0
:1006B000570C0000470C0000610C0000F8B5CE4656
:1006C000474680B5051E884691461FD000291FD099
:1006D000002A1FD10020862252000F490F4B984755
:1006E00000262C00083420000D4B98470028F8D035
:1006F00043469F1920000B4B9847387001364E45F2
:10070000EFD330000CBC90469946F8BD0020E2E7DC
:100710000020E0E70120DEE704190000A107000047
:100720006D0C00004F0C000070B504000D00002897
:1007300014D0002910D0012034220949094B9847D0
:10074000200008302900084B9847002803D1074BA8
:100750006360074B236070BD0020EDE70020EBE7EE
:1007600004190000A1070000090C0000BD060000EC
:100770004906000010B50400431E9841C0B2532240
:100780000449054B984720000830044B9847002047
:1007900010BDC04604190000A1070000350C000080
:1007A000002800D100BE70470368002B03D08B42A5
:1007B00003D01B68F9E7002070470120FCE7000028
:1007C00070B504000D00064B984701235840C0B295
:1007D00039220449044B984723682B60256070BD7B
:1007E000A907000020190000A107000003680B60A2
:1007F000016070470368002B03D01A68026018007C
:1008000070470020FCE700000300064A1268002A37
:1008100004D0044A1068C318136070470249014AA3
:100820001160F6E780000020F02000200120404207
:10083000704780239B014B60002070470020704769
:1008400043B2002B07DB1F2318401E3B834080224E
:10085000520001498B50704700E100E010B5094B90
:100860005A685A600220084B9847084B9847084B33
:100870009847084B9847084B9847FF20074B9847E5
:1008800010BDC046004000418B0A0000350A000040
:10089000510A0000210A0000890A0000CD09000069
:1008A00010B504001A4BC01843425841C0B2DC22B4
:1008B0001849194B9847A368DB0714D4A3689B0712
:1008C000FCD123789B0709D5237802229343237018
:1008D000A3689B07FCD1A3689B07FCD4012323706A
:1008E000A3689B07FCD1A368DB07FCD402236370D9
:1008F0000023A3700833A381A3689B07FCD40823BB
:10090000E381A3689B07FCD401232376002010BD5C
:1009100000D0FFBD40190000A107000070B5050020
:100920000C00431E9841C0B252220449044B984720
:100930002C602000034B984770BDC0464019000052
:10094000A1070000A108000010B50368012900D923
:1009500010BD1A78022082431A709A689207FCD15F
:100960000A1D52009A1890880224204380B2908079
:100970009A689207FCD41A7802200243D2B21A7005
:100980009A689207FCD1002903D1DA79D207FCD505
:10099000DEE7DA799207FCD5DAE70268012901D9A6
:1009A0000020704793689B07FCD40431490052181B
:1009B00093885B0801201840F3E700680832520072
:1009C000115283680C221A42FBD17047C30707D526
:1009D0000E4A0F4B1A620E4B5A680E4B1A42FAD14E
:1009E000830707D50C4A0A4B5A62094B5A68094BD0
:1009F0001A42FAD1430707D5084A054B9A62044BBD
:100A00005A68044B1A42FAD17047C04606010100E9
:100A100000180040FD070000070101000701040065
:100A2000034B08229A71043A5A71033A1A717047BB
:100A300000040040054AD3691B0A1B02F821490142
:100A40000B40D361012313617047C0460010004082
:100A500082220C4B1A7538230A4AD35C9B07FAD4BE
:100A6000084BDB68DB06FBD5064A137D8021494233
:100A70000B43DBB213753823024AD25C2A3B1A427D
:100A8000F9D17047000C004070478023DB059B784C
:100A90000322134098420ED08022D205FF23937187
:100AA000937803218B430840184390708023DB0523
:100AB0009B79002BFAD07047054B984206D0BE2395
:100AC0001B069C466044800AC0B270470520FCE7C4
:100AD0000004004310B50B4B98470200002000288B
:100AE00006D0094A09490020094B9847002010BD4B
:100AF00083001B189900074BCB5C9A42F7D001305A
:100B0000C0B2ECE7B90A00003D020000A8190000DD
:100B1000A10700005819000070B50400384B984731
:100B2000E369DB071DD483001B189A00354B9B1823
:100B30005A681C231A40E3699B07FCD123689B0772
:100B400009D5236802218B432360E3699B07FCD10D
:100B5000E3699B07FCD4012313432360E3699B07EC
:100B6000FCD1E369DB07FCD483001B189A00254BFA
:100B70009B185B682360E3699B07FCD183001B180B
:100B80009A00204B9B189B686360E3695B07FCD16C
:100B900083001B189A001B4B9B185B689A040BD4AC
:100BA000C022D201134207D183001B189A00154BB3
:100BB0009B189B89A38115E083001B189A0011499B
:100BC00089188A89A389D204D20C5B0B5B03134377
:100BD000A3818B7B07221A40A3895203DB04DB0C21
:100BE0001343A381074A83001D18A9000D00511863
:100BF000C97BA1735219127C3023E254002070BDCE
:100C0000D50A00005819000070B505000C00431EFD
:100C10009841C0B2B4220449044B98472C6020008C
:100C2000034B984770BDC046A8190000A1070000FB
:100C3000190B00000268136802210B431360D3698B
:100C40009B07FCD17047036889B219857047036818
:100C5000188DC0B270470368187E01231840704792
:100C600003681B7E5B0801201840704703681B7EE9
:100C70009B0801201840704710B5C3689A7AD207C4
:100C800000D410BD01229A7203689847F9E700006A
:100C9000034B984200D07047024B1960FBE7C046F7
:100CA000002000428400002010B5114B984210D063
:100CB000104B9C466044800AC3B2002000280AD032
:100CC0009E2252000C4900200C4B984701204042C4
:100CD00010BD0423F1E7820012189100084A8A5CD3
:100CE0009A4202D00130C0B2E8E740B2F0E7C04615
:100CF0000008004300E0FFBDD8190000A107000074
:100D0000C419000070B506000C0008005E4B98473F
:100D10000500F4608D225D4901205D4B98472369F1
:100D2000DB0714D423699B07FCD123689B0709D5F3
:100D3000236802229343236023699B07FCD1236924
:100D40009B07FCD40123236023699B07FCD1236903
:100D5000DB07FCD4AB005B199A004E4B9B185B6819
:100D6000236023699B07FCD1AA0052199100494BCB
:100D70005B189A7AE2731A89E280012222735A6818
:100D80000C231340082B51D0002B5ED1AB005B1914
:100D90009A00404B9B189B89A3832369C0221A4267
:100DA000FBD10023E3832369C0221A42FBD1012334
:100DB000637231002000384B9847AB005B199A00F2
:100DC000344B9B185B785BB2002B0BDB1F2213406C
:100DD0001E3A9A401300802230498B50BFF34F8F48
:100DE000BFF36F8FAB005B199A002A4B9B185B789F
:100DF0005BB2002B08DB1F2213401E3A9A401300FF
:100E0000C022520025498B50AB005D19AA00214B2E
:100E10009B185B785BB2002B06DB1F2213401E3A47
:100E20009A4013001D4A1360002070BD194B5B18D7
:100E3000DB68E3612369C0221A42FBD100232362ED
:100E40002369C0221A42FBD1B1E7042BAFD1AB001A
:100E50005B199A000F4B9B181B7B23772369C022D9
:100E60001A42FBD1002363772369C0221A42FBD1C7
:100E7000AB005B199A00074B9B18DB7AE37623697A
:100E80009B06FCD493E7C046A90C0000D8190000CB
:100E9000A1070000C4190000910C000000E100E06F
:100EA000C268136802210B43136013699B07FCD1CE
:100EB0007047C26813699B07FCD113685B08012067
:100EC000184070470020704710B5C068084B98471D
:100ED00004001022FF3207490120074B9847A00069
:100EE00000198200054B9B185878054B984710BD98
:100EF000A90C0000D8190000A1070000C4190000C7
:100F00004108000010B5024B1868024B984710BD0D
:100F100084000020790C000010B501211048114B0D
:100F20009847002811D0104B1B78002B0ED00E4B89
:100F30005B780D4A53780133DBB253705378DBB2E0
:100F4000632B02D90022084B5A7010BD064B5B7808
:100F50005B00064A995A01220148054B9847E8E789
:100F6000B80000209B09000088000020EC19000058
:100F7000BB09000010B50B4B98470B496423CB60AD
:100F80000A4B0B6101230B750431094C2000094BFE
:100F900098472000084B984701210848084B98477C
:100FA000FEE7C0461501000088000020190F000070
:100FB000CC000020990500005D050000B80000206D
:100FC000B503000010B50B00002809D1110018006E
:100FD000054B9847002800DB10BD01204042FBE78D
:100FE00001204042F8E7C0464110000010B50B0058
:100FF0000138022809D811001800054B984700282D
:1010000000DB10BD01204042FBE701204042F8E731
:101010006510000070B50600064D2B689868002129
:10102000054CA0472B6858680021A047034B1E6061
:1010300070BDC0460000002001110000A00000208B
:1010400010B50400054B1868002804D08AB22100AE
:10105000034B984710BD0020FCE7C046A0000020CD
:101060002504000010B50400054B1868002804D0C2
:101070008AB22100034B984710BD0020FCE7C04610
:10108000A0000020ED03000010B5044C2000044B2C
:1010900098472000034B984710BDC046AC00002085
:1010A000750700001510000070B500260C4D0D4CA2
:1010B000641BA410A64209D1002600F091FD0A4D40
:1010C0000A4C641BA410A64205D170BDB300EB58B6
:1010D00098470136EEE7B300EB5898470136F2E740
:1010E000EC1B0000EC1B0000EC1B0000F01B0000E0
:1010F00003008218934200D1704719700133F9E759
:101100004A424A41802310B55200DB0000F002F849
:1011100010BD0000F0B51D004F4B85B01E680400E7
:101120000F000092002E05D0B369002B02D13000D1
:1011300000F094F9494B9C4250D17468009B022BFB
:1011400005D0012B00D984E0002D00DA81E02100D8
:10115000300000F015F9616B002908D023004433FA
:10116000994202D0300000F041FA0023636300236B
:10117000A3616360A3891B0603D52169300000F0D9
:1011800035FAA389364A1340A381009B022B5AD01B
:1011900003AB02AA2100300000F0F6F9A38918433E
:1011A000A081002D24D1029D280000F015FA0195A0
:1011B000071E42D1029B0193AB4239D1012040422C
:1011C0000223A2891343A3810023A3602300473392
:1011D000236023610123636105B0F0BD214B9C4274
:1011E00001D1B468AAE7204B9C42A7D1F468A5E7D7
:1011F000002FD9D0B369002B02D1300000F02EF9B6
:10120000009B012B03D1A389009A1A43A2810820D5
:10121000A389276027616561184018D00120184014
:101220000023984211D06D42A360A5611800D3E756
:10123000019800F0D1F9071EC0D08023A289019D3A
:101240001343A381D6E70020BAE7A560C4E7A060F6
:10125000C2E701204042BFE700000020A01B0000C1
:101260005CF3FFFFC01B0000801B0000F7B58A89FC
:1012700005000C00130760D44B68002B04DC0B6CDA
:10128000002B01DC0020FEBDE76A002FFAD000230E
:101290002E682B6080235B011A4034D0606DA389D7
:1012A0005B0706D56368C01A636B002B01D0236C03
:1012B000C01A0200216A00232800E76AB847A18902
:1012C000431C06D12B681D2B31D82C4ADA40D3079A
:1012D0002DD50023636023692360CB0405D5431C0F
:1012E00002D12B68002B00D16065616B2E60002954
:1012F000C8D023004433994202D0280000F076F988
:1013000000206063BFE70123216A2800B847431C1F
:10131000C5D12B68002BC2D01D2B01D0162B01D1BB
:101320002E60AFE74023A2891343A381ABE740239C
:101330000B430120A3814042A5E70F69002FA1D0F4
:101340000B680F60DB1B01930023920700D14B69F0
:10135000A360019B002B00DC94E7019B3A00216A0B
:101360002800A66AB047002803DC4023A289134363
:10137000DFE7019B3F181B1A0193EAE701004020B9
:101380000B6970B505000C00002B01D1002070BD69
:10139000002804D08369002B01D100F05FF80B4BCB
:1013A0009C4209D16C680C22A35E002BEED0210078
:1013B0002800FFF75BFFEAE7054B9C4201D1AC68D0
:1013C000F1E7044B9C42EED1EC68ECE7A01B000077
:1013D000C01B0000801B000010B5024900F0B2F8ED
:1013E00010BDC04681130000002310B50400036047
:1013F0004360836081814366C2810361436183618D
:10140000190008225C30FFF773FE054B246263620B
:10141000044BA362044BE362044B236310BDC0463C
:101420006117000089170000C1170000ED170000C8
:1014300070B568254A1E55430E002900743100F02E
:101440001FF9041E08D000212A00016046600C30FC
:10145000A0606832FFF74CFE200070BD836913B5B1
:101460000400002B28D18364C3640365134B144A22
:101470001B6882620193984201D10123836120009D
:1014800000F020F86060200000F01CF8A060200050
:1014900000F018F80022E06004216068FFF7A4FF64
:1014A00001220921A068FFF79FFF02221221E068B4
:1014B000FFF79AFF0123A36113BDC0467C1B000008
:1014C000D9130000F8B51E4B07001E68B369002B46
:1014D00002D13000FFF7C2FF4836B4687368013BA1
:1014E00004D53368002B07D03668F6E70C22A55EDA
:1014F000002D0DD06834F2E704213800FFF798FF83
:1015000030600028F0D10C2304003B602000F8BDBF
:10151000012320005B42E3810233A38165662560DD
:10152000A560656025616561A561082229005C30C0
:10153000FFF7DEFD6563A563A564E564E6E7C046E5
:101540007C1B0000F7B50400070000260191483419
:10155000002C01D13000FEBD6368A5680093009B9C
:10156000013B009301D52468F2E7AB89012B08D930
:101570000E22AB5E013304D029003800019B98474E
:1015800006436835EBE7000070B50E001D000E2322
:10159000C95E90B01400002907DA00232B60B389DC
:1015A0001B0611D48023DB000FE001AA00F04AF9EA
:1015B0000028F2DBF022029B12021340054A9B181E
:1015C0005A4253412B60EDE740230020236010B0C6
:1015D00070BDC04600E0FFFF10B5034B0100186866
:1015E00000F04EF810BDC0460000002070B50500A8
:1015F000002910D00C1F2368002B00DAE418280003
:1016000000F046F91D4A1368002B05D16360146091
:10161000280000F03EF970BDA34209D92168601886
:101620008342F3D118685B6841182160EEE713002C
:101630005A68002A01D0A242F9D919685818A04264
:101640000BD120680918581819608242E0D110683F
:101650005268411819605A60DAE7A04202D90C2397
:101660002B60D5E721686018824203D11068526868
:101670004118216062605C60CAE7C046A400002097
:10168000032370B5CD1C9D43083506000C2D1ED2DA
:101690000C25A9421DD8300000F0FAF8254A14683C
:1016A0002100002919D1244C2368002B03D13000DC
:1016B00000F044F820602900300000F03FF8431C9F
:1016C0002CD10C233000336000F0E3F803E0002D50
:1016D000DFDA0C233360002070BD0B685B1B1AD46B
:1016E0000B2B03D90B60CC18256003E08C420ED184
:1016F00063681360300000F0CCF8200007220B3044
:10170000231D9043C31AE7D05A42E250E4E74B68E6
:1017100063600C00EEE70C004968C2E70323C41CB9
:101720009C43A042E0D0211A300000F007F8431C8F
:10173000DAD1C6E7A4000020A8000020002370B57D
:10174000064C050008002360FFF75EF8431C03D138
:101750002368002B00D02B6070BDC046E80000203D
:1017600070B50C000E25495F00F094F8002803DBEB
:10177000636D1B18636570BDA389024A1340A38182
:10178000F9E7C046FFEFFFFFF8B51F008B890500A2
:101790000C001600DB0505D50E23C95E00220223CE
:1017A00000F062F8A389054A28001340A3813200A3
:1017B0000E23E15E3B0000F01FF8F8BDFFEFFFFFD6
:1017C00070B50C000E25495F00F04EF8A389421C4D
:1017D00003D1054A1340A38170BD802252011343F7
:1017E000A3816065F8E7C046FFEFFFFF10B50E2349
:1017F000C95E00F015F810BD70B5050008001100B5
:101800000022064C22601A00FFF7F0FB431C03D1B4
:101810002368002B00D02B6070BDC046E80000207C
:10182000002370B5064C050008002360FEF7FEFF9C
:10183000431C03D12368002B00D02B6070BDC04631
:10184000E8000020002370B5064C050008001100D8
:101850002360FEF7EEFF431C03D12368002B00D06A
:101860002B6070BDE800002070B505000800110075
:101870000022064C22601A00FEF7E0FF431C03D151
:101880002368002B00D02B6070BDC046E80000200C
:101890007047704770B50500080011000022064C23
:1018A00022601A00FFF78EFB431C03D12368002B34
:1018B00000D02B6070BDC046E80000202E2E2F689F
:1018C000616C2F7372632F68616C5F6461635F7317
:1018D000796E632E630000002E2E2F68616C2F73CB
:1018E00072632F68616C5F696F2E63002E2E2F6804
:1018F000616C2F7372632F68616C5F74696D6572C0
:101900002E6300002E2E2F68616C2F7372632F6878
:10191000616C5F75736172745F73796E632E6300BF
:101920002E2E2F68616C2F7574696C732F73726320
:101930002F7574696C735F6C6973742E630000009B
:101940002E2E2F68706C2F6461632F68706C5F643B
:1019500061632E63000000000300000004001040DB
:10196000000003001214000000000000000000004E
:101970000000000000000000000000000000000067
:101980000000000000000000000000000000000057
:101990000000000000000000000000000000000047
:1019A00000000000000000002E2E2F68706C2F73C6
:1019B0006572636F6D2F68706C5F736572636F6DB6
:1019C0002E6300000011000008000000000000006D
:1019D00080BB0000000000002E2E2F68706C2F745A
:1019E000632F68706C5F74632E6300000002100246
:1019F0002002300240024F025E026D027B02890229
:101A00009702A302AF02BB02C502CF02D802E002D6
:101A1000E802EE02F402F802FC02FE0200030003F8
:101A20000003FE02FC02F802F402EE02E802E00209
:101A3000D802CF02C502BB02AF02A30297028902FD
:101A40007B026D025E024F02400230022002100251
:101A50000002F001E001D001C001B101A201930137
:101A6000850177016A015D01510146013B013101A8
:101A700028012001180112010D01080105010201D0
:101A80000101000101010201050108010D0112011E
:101A900018012001280131013B01460151015D017E
:101AA0006A01770185019301A201B101C001D00152
:101AB000E001F001000105010A010F0115011A0101
:101AC0001F01240129012E01330138013E01430188
:101AD00048014D01520157015C01610167016C0130
:101AE000710176017B01800185018A018F019501D9
:101AF0009A019F01A401A901AE01B301B801BE0181
:101B0000C301C801CD01D201D701DC01E101E70128
:101B1000EC01F101F601FB01000205020A020F02CD
:101B200015021A021F02240229022E023302380271
:101B30003E02430248024D02520257025C02610219
:101B400067026C02710276027B02800285028A02C1
:101B50008F0295029A029F02A402A902AE02B3026A
:101B6000B802BE02C302C802CD02D202D702DC0212
:101B7000E102E702EC02F102F602FB02040000209F
:101B80000000000000000000000000000000000055
:101B90000000000000000000000000000000000045
:101BA0000000000000000000000000000000000035
:101BB0000000000000000000000000000000000025
:101BC0000000000000000000000000000000000015
:101BD0000000000000000000000000000000000005
:101BE000F8B5C046F8BC08BC9E467047DD00000052
:101BF000F8B5C046F8BC08BC9E467047B50000006A
:101C00000400002000000000A01B0000C01B00001A
:101C1000801B000000000000000000000000000029
:101C200000000000000000000000000000000000B4
:101C300000000000000000000000000000000000A4
:101C40000000000000000000000000000000000094
:101C50000000000000000000000000000000000084
:041C60000000000080
:00000001FF
